:1003680090e668e0ff74fff0e0b40b04eff0d322ee
:0603780090e668eff0c3ff
:01037e00225c
:1001b500907fe9e064a360030202c5a3e07508002f
:1001c500f509a3e0fee4ee4208907feee0750a0033
:1001d500f50ba3e0fee4ee420a907fe8e064407090
:1001e50064e50b450a70030202d6e4907fc5f090e2
:1001f5007fb4e020e3f9907fc5e0750c00f50de4d0
:10020500fcfdc3ed950dec950c501f74c02df582ca
:10021500e4347ef583e0ffe5092df582e5083cf53c
:1002250083eff00dbd00010c80d8e50d2509f5091a
:10023500e50c3508f508c3e50b950df50be50a95b5
:100245000cf50a809c907fe8e064c060030202d64a
:10025500e50b450a607bc3e50b9440e50a94005025
:1002650008850a0c850b0d8006750c00750d40e49c
:10027500fcfdc3ed950dec950c501fe5092df582a0
:10028500e5083cf583e0ff74002df582e4347ff545
:1002950083eff00dbd00010c80d8907fb5e50df022
:1002a5002509f509e50c3508f508c3e50b950df5a8
:1002b5000be50a950cf50a907fb4e030e29280f7e1
:1002c500907fe9e0b4ac0ae4907f00f0907fb5043c
:0802d500f0907fb4e04402f058
:0102dd0022fe
:1000800090e6b9e064a36003020198a3e07508005c
:10009000f509a3e0fee4ee420890e6bee0750a0032
:1000a000f50ba3e0fee4ee420a90e6b8e06440708f
:1000b00066e50b450a70030201ade490e68af0a301
:1000c000f090e6a0e020e1f990e68be0750c00f5f9
:1000d0000de4fcfdc3ed950dec950c501f74402d07
:1000e000f582e434e7f583e0ffe5092df582e508c4
:1000f0003cf583eff00dbd00010c80d8e50d25091e
:10010000f509e50c3508f508c3e50b950df50be58c
:100110000a950cf50a809a90e6b8e064c060030284
:1001200001ade50b450a70030201adc3e50b944038
:10013000e50a94005008850a0c850b0d8006750ca5
:1001400000750d40e4fcfdc3ed950dec950c501fc2
:10015000e5092df582e5083cf583e0ff74402df5b7
:1001600082e434e7f583eff00dbd00010c80d8e4a4
:1001700090e68af0a3e50df02509f509e50c3508b0
:10018000f508c3e50b950df50be50a950cf50a90fe
:10019000e6a0e030e18c80f790e6b9e0b4ac0e90d8
:1001a000e7407401f0e490e68af0a304f090e6a042
:0401b000e04480f0b7
:0101b4002228
:1002de00c2011203689200907f95e044c0f0d2e80c
:1002ee0030000890e65d74fff08006907fab74ffdf
:1002fe00f030000890e6687408f08007907fafe059
:10030e004401f030000890e65c7401f08006907fa6
:10031e00ae7401f0d2af3001fd30000512008080c6
:08032e00031201b5c20180eecb
:03000300020336bf
:10033600c0e0c083c082c085c084c086758600d2f6
:10034600015391ef30000890e65d7401f08006904d
:100356007fab7401f0d086d084d085d082d083d094
:02036600e03283
:03004300020400b4
:0404000002033600bd
:0300000002037f79
:0c037f00787fe4f6d8fd7581200202ded4
:00000001FF
