:1000660012010002000000405618120000000102b2
:1000760000020a06000200000040010009022000fa
:1000860001010080af0904000002ff00000007051f
:100096000102400000070582020004000902200058
:1000a60001010080af0904000002ff0000000705ff
:1000b6000102400000070582024000000403090413
:1000c6000c033000720069006f006e002a035300b3
:1000d600740061007200530068006f006f007400c6
:1000e60020004100750074006f006700750069000c
:0600f600640065007200c9
:040200000202c632fe
:01020b0032c0
:0102130032b8
:01021b0032b0
:0102230032a8
:01022b0032a0
:010233003298
:01023b003290
:010243003288
:01024b003280
:010253003278
:01025b003270
:010263003268
:03026b000204deac
:030273000205334e
:03027b0002054930
:0302830002055f12
:03028b00020575f4
:0302930002058bd6
:03029b000205a1b8
:0302a3000205b79a
:0302ab000205cd7c
:0302b3000205e35e
:0302bb000205f940
:0302c30002060f21
:10032b0002032e12033380fec202c200c201120866
:10033b0003d2e843d82090e65ce0fa443df0d2af1c
:10034b00d20d12164090e680e0fa54f7f0538ef877
:10035b00c202120a2d30070512036dc207120da33c
:10036b0080f390e6b9e0fa24f450030204d5ea2aac
:10037b002a900380730204880204760204d50204d7
:10038b00760204d50204d50203a40204760204808b
:10039b0002047602047802047690e6bbe0faba0116
:1003ab00028017ba02028040ba03028067ba0602c3
:1003bb00801fba070280470204d57a667b0090e65d
:1003cb00b3ebf07a667b007b0090e6b4eaf00204b4
:1003db00d57a787b0090e6b3ebf07a787b007b00e4
:1003eb0090e6b4eaf00204d590e000e0faa3e0fb5b
:1003fb0090e6b3f07b0090e6b4eaf00204d590e00f
:10040b0000e0faa3e0fb90e6b3f07b0090e6b4eae1
:10041b00f00204d590e6bae0fa600dba0102801f33
:10042b00ba020280300204d57ac27b0090e6b3ebad
:10043b00f07ac27b007b0090e6b4eaf00204d57a36
:10044b00c67b0090e6b3ebf07ac67b007b0090e6b0
:10045b00b4eaf080757ad27b0090e6b3ebf07ad2f7
:10046b007b007b0090e6b4eaf0805f805d758200d4
:10047b00120ac48055758201120ac4804d90e6b8e9
:10048b00e0faba8002800aba81028005ba823b8008
:10049b0008900000120ad7803190e6bce0fa5302b4
:1004ab007e90e6bce0fbc374809be433fb4a901662
:1004bb00d593fa3395e0fb74a12afa74e63bfb74ef
:1004cb00015af582758300120ad790e6a0e0fa4430
:0304db0080f0228c
:0a16d50000010202030304040505ee
:1004de00c0e0c0f0c082c083c002c003c004c0052b
:1004ee00c006c007c000c001c0d075d000120dae4e
:1004fe009203a203920720030890e6a0e0fa44803c
:10050e00f05391ef90e65d7401f0d0d0d001d000a1
:10051e00d007d006d005d004d003d002d083d0822d
:10052e00d0f0d0e032c0e0c082c0835391ef90e6ad
:10053e005d7402f0d083d082d0e032c0e0c082c0c1
:10054e00835391ef90e65d7404f0d083d082d0e0b7
:10055e0032c0e0c082c0835391ef90e65d7408f024
:10056e00d083d082d0e032c0e0c082c0835391effe
:10057e0090e65d7410f0d083d082d0e032c0e0c03f
:10058e0082c0835391ef90e65d7420f0d083d082c9
:10059e00d0e032c0e0c082c0835391ef90e65d742c
:1005ae0040f0d083d082d0e032c0e0c082c083530e
:1005be0091ef90e65d7480f0d083d082d0e032c0af
:1005ce00e0c082c0835391ef90e65f7401f0d08358
:1005de00d082d0e032c0e0c082c0835391ef90e66b
:1005ee005f7402f0d083d082d0e032c0e0c082c00f
:1005fe00835391ef90e65f7404f0d083d082d0e005
:10060e0032c0e0c082c083d20890e68de4f05391f0
:10061e00ef90e65f7408f0d083d082d0e032c281d2
:10062e0090e6f574fff000000090e6c07455f000ff
:10063e00000090e6047480f000000090e60474025e
:10064e00f000000090e604e4f000000090e618e4ec
:10065e00f000000090e6cee4f000000090e038e0fc
:10066e00fa90e6cff000000090e037e0fa90e6d086
:10067e00f000000090e036e0fa90e6d1f0000000c5
:10068e0075bb0490e032e4f0a3f0a3f0a3f022e5f2
:10069e00bb30e7fb90e6487452f090e618740cf00d
:1006ae00000000d28190e6047480f000000090e615
:1006be00047402f000000090e604e4f00000002252
:1006ce0090e6f574fff000000090e6c07455f0005f
:1006de00000090e6047480f000000090e6047402be
:1006ee00f000000090e604e4f000000090e618e44c
:1006fe00f000000090e6cee4f000000090e6cfe4bb
:10070e00f000000090e01fe0fa90e6d0f00000004c
:10071e0090e01ee0fa90e6d1f000000075bb0400f8
:10072e000000e5bb30e7fb90e6487452f090e61807
:10073e00740cf000000090e6047480f0000000904d
:10074e00e6047402f000000090e604e4f0000000fd
:10075e0022c281300b0890e618740df0800690e6e8
:10076e0018740cf090e6f574fff000000090e6c0ef
:10077e00e4f000000090e6047480f000000090e6c3
:10078e00047402f000000090e604e4f00000009013
:10079e00e6cee4f000000090e038e0fa90e6cff00c
:1007ae0000000090e037e0fa90e6d0f000000090f4
:1007be00e036e0fa90e6d1f0000000c28c90e03214
:1007ce00e4f0a3f0a3f0a3f0d28c90e6cfe0fa70a1
:1007de000e90e6d0e0fa700790e6d1e0fa600d7563
:1007ee00bb04000000e5bb20e7e080f990e648740a
:1007fe0002f0d2812290e600e0fa74e75a90e60009
:10080e004410f000000090e60b7401f00000009020
:10081e00e61274e0f000000090e613e4f000000031
:10082e0090e614e4f000000090e615e4f0000000fd
:10083e0090e61074a0f000000090e6d27402f00072
:10084e00000090e6047480f000000090e60474024c
:10085e00f000000090e604e4f000000090e68de465
:10086e00f090e60174caf090e6f574fff090e6f3ae
:10087e0074a0f090e6c37410f090e6c1e4f090e638
:10088e00c2f090e6f4f075af07759de4759e007aa0
:10089e00df7b168b9a7adf7b167b008a9b90e002b9
:1008ae007440f090e002e0fa1490e002f0ea600b7f
:1008be0090e67be0fa90e67cf080e890e6c6e4f005
:1008ce0090e6c7f090e6c8f090e6c9f090e6cae46c
:1008de00f090e6cbf090e6ccf090e6cdf090e6808e
:1008ee00e0fa30e70d90009fe4f09000a07402f063
:1008fe00800b90009f7440f09000a0e4f090e6789a
:10090e00e0fa4480f090e67974a0f0120bd690e6ef
:10091e00797405f0120bd690e678e0fa4440f012a6
:10092e000bd690e678e0fa4480f090e67974a1f068
:10093e00120bd690e678e0fa4420f090e679e0fad1
:10094e00900072f0120bd690e678e0fa4440f01266
:10095e000bd690e679e090e678e0fa4440f090000d
:10096e0072e4f090e678e0fa4480f090e67974a0b4
:10097e00f0120bd690e6797406f0120bd690e6784c
:10098e00e0fa4440f0120bd690e678e0fa4480f09c
:10099e0090e67974a1f0120bd690e678e0fa442036
:1009ae00f090e679e0fa900073f0120bd690e678ac
:1009be00e0fa4440f0120bd690e679e090e678e04b
:1009ce00fa4440f0900073e4f09000a0e0fa90e654
:1009de0020f000000090009fe0fa90e621f0000069
:1009ee000090e0007482f0a37400f0d20090e671e3
:1009fe00e4f075b40090e670e4f075b2f390e67230
:100a0e00e4f075b60075800375b50075b30090e619
:100a1e0000e0fa4402f090e65ee0fa4408f022c2ea
:100a2e000bc20690e00be4f0a3f0a3f0a3f0c20912
:100a3e0090e013e4f0a3f0a3f0a3f090e032e4f022
:100a4e00a3f0a3f0a3f0c20a90e03974fff0a3f074
:100a5e00a374fff0a3f090e03d74fff0a3f0a37435
:100a6e00fff0a3f012145c120a9e90e01be4f090cb
:0e0a7e00e02ef0a3f0a3f0a3f0c204c2052204
:1016df0001010101010101070200020002000200e5
:1016ef000100010001000100000000000000003fa8
:1016ff000138010101010107000300000000000093
:10170f000001000000000000002d00000000003f5d
:0c031f00c204c205c208c209c20ac20b17
:100a8c007aff7bff8a048b051abaff011bec4d70b1
:100a9c00f322c280120a8cd28090e03274fff0a351
:100aac00f0a374fff0a3747ff090e01d7401f002ca
:020abc000b56d7
:10171f0000000000000000000000000000000000ba
:0b172f00186ac8ffffffffffffffff6d
:1000000002033302dead00000000000214740000a1
:1000100000000002dead000000000002dead0000c6
:1000200000000002dead000000000002dead0000b6
:1000300000000002dead000000000002dead0000a6
:10004000000000020100000000000002dead000020
:10005000000000020100000000000002dead000010
:0600600000000002dead0d
:100100000204de00020533000205490002055f001b
:100110000205750002058b000205a1000205b7006b
:100120000205cd000205e3000205f90002060f00fa
:1001300002dead0002dead0002dead0002dead008b
:1001400002dead0002dead0002dead0002dead007b
:1001500002dead0002dead0002dead0002dead006b
:1001600002dead0002dead0002dead0002dead005b
:1001700002dead0002dead0002dead0002dead004b
:1001800002dead0002dead0002dead0002dead003b
:1001900002dead0002dead0002dead0002dead002b
:1001a00002dead0002dead0002dead0002dead001b
:0801b00002dead0002dead002d
:100abe0012062c02069daa8290e740eaf090e68a82
:100ace00e4f090e68b7401f022aa82ab838a047d57
:100ade000090e740ecf08b027b0090e741eaf0904b
:100aee00e68ae4f090e68b7402f022aa82ab83ac25
:100afe00f0fd8a067f007800790090e740eef08bdb
:100b0e00028c038d047d008a067f007800790090a8
:100b1e00e741eef08b028c038d047d008a067f0088
:100b2e007800790090e742eef08b028c038d047d05
:100b3e00007b007c007d0090e743eaf090e68ae4bb
:100b4e00f090e68b7404f02290e01de0fa701c9099
:100b5e00e022e0faa3e0fba3e0fca3e0fd90e017a7
:100b6e00eaf0a3ebf0a3ecf0a3edf090e01de0fab9
:100b7e00ba011190e01774c8f0a3746af0a3741848
:100b8e00f0a3e4f090e017e0faa3e0fba3e0fca3ef
:100b9e00e0fd8a067f007800790090e036eef08b5b
:100bae00028c038d047d008a067f00780079009008
:100bbe00e037eef08b028c038d047d007b007c0011
:100bce007d0090e038eaf0227a647b008a048b057f
:100bde001abaff011bec4d70f322120a9e90e01d13
:100bee007401f0120b567a407be78b9a7a407be7c2
:100bfe007b008a9b12062c90e678e0fa4480f090f7
:100c0e00e67974baf0120bd690e679742bf0120bcb
:100c1e00d690e67be0fa90e679f0120bd690e67b62
:100c2e00e0fa90e679f0120bd690e67be0fa90e6c9
:100c3e0079f0120bd690e67be0fa90e679f0120b83
:100c4e00d690e67be0fa90e679f0120bd690e67b32
:100c5e00e0fa90e679f0120bd690e67be0fa90e699
:100c6e0079f0120bd690e67be0fa90e679f0120b53
:100c7e00d690e678e0fa4440f0120bd690e678e093
:100c8e00fa4480f090e67974baf0120bd690e679b9
:100c9e007401f0120bd690e67be0fa90e679f01232
:100cae000bd690e67be0fa90e679f0120bd690e642
:100cbe007be0fa90e679f0120bd690e67be0fa90a4
:100cce00e679f0120bd690e67be0fa90e679f01218
:100cde000bd690e67be0fa90e679f0120bd690e612
:100cee007be0fa90e679f0120bd690e67be0fa9074
:100cfe00e679f0120bd690e678e0fa4440f0120b4b
:100d0e00d690e678e0fa4480f090e67974baf01264
:100d1e000bd690e6797409f0120bd690e67be0faca
:100d2e0090e679f0120bd690e67be0fa90e679f039
:100d3e00120bd690e678e0fa4440f090e678e0faae
:100d4e004480f090e67974baf0120bd690e679747e
:100d5e0062f0120bd690e679741cf0120bd690e668
:100d6e0079749ef0120bd690e678e0fa4440f012b9
:100d7e00069d90e01de4f0120b56120abe90e03272
:100d8e00e0faa3e0fba3e0fca3e0fd90e01beaf099
:100d9e00e02401f022300a0712075fc20ac20922bc
:100dae0090e6b9e0faba10030213a3ba11030210c7
:100dbe0030ba12030211ebba1303021039ba14033c
:100dce00021078ba1503021123ba17030210f1baf2
:100dde001803021307ba19030212daba200302101b
:100dee009aba2103021335ba220302136cba2503f1
:100dfe00020ff3ba2603020f7cba27030210d8bae9
:100e0e005502800fba660302110dba68030211185b
:100e1e0002145390e6bce0fa603cba01028051ba6b
:100e2e0002028066ba0302807bba0403020eccbab9
:100e3e000503020ee4ba0603020efcba0703020f04
:100e4e0016ba0803020f30ba0903020f48ba630339
:100e5e00020f61020f6f90e017e0faa3e0fba3e030
:100e6e00fca3e0fd8a828b838cf0120af9021458df
:100e7e0090e032e0faa3e0fba3e0fca3e0fd8a825f
:100e8e008b838cf0120af902145890e00be0faa34f
:100e9e00e0fba3e0fca3e0fd8a828b838cf0120ab8
:100eae00f902145890e013e0faa3e0fba3e0fca3d0
:100ebe00e0fd8a828b838cf0120af9021458e4a2a8
:100ece000933fa7b007c007d008a828b838cf0ede7
:100ede00120af9021458e4a20a33fa7b007c007d50
:100eee00008a828b838cf0ed120af902145890e07e
:100efe0003e0faa3e0fba3e0fca3e0fd8a828b8370
:100f0e008cf0120af902145890e007e0faa3e0fb05
:100f1e00a3e0fca3e0fd8a828b838cf0120af90217
:100f2e00145890e01be0fa7b007c007d008a828bd7
:100f3e00838cf0ed120af902145890e01ee0faa329
:100f4e00e0fb7c007d008a828b838cf0ed120af927
:100f5e00021458900009e4f5f07410120af9021404
:100f6e005890ffff74fff5f0120af902145890e63c
:100f7e0078e0fa4480f090e67974a0f0120bd690e7
:100f8e00e6bce0fa90e679f0120bd690e678e0fa3d
:100f9e004440f0120bd690e678e0fa4480f090e6ea
:100fae007974a1f0120bd690e678e0fa4420f09016
:100fbe00e679e0fa90e021f0120bd690e678e0faae
:100fce004440f0120bd690e679e0fa90e740f090ac
:100fde00e68ae4f090e68b7401f090e678e0fa444d
:100fee0040f002145890e678e0fa4480f090e679ea
:100ffe0074a0f0120bd690e6bce0fa90e679f012ef
:10100e000bd690e6bae0fa90e679f0120bd690e69f
:10101e0078e0fa4440f090e68ae4f090e68bf00235
:10102e00145890dead120ad702145820093090e6fb
:10103e00bae0faa3e0fba3e0fca3e0fd90e022ea15
:10104e00f0a3ebf0a3ecf0a3edf090e68ae4f090c1
:10105e00e68bf090e6a0e0fa20e1f8120be890e6bd
:10106e008ae4f090e68bf002145820091390e6ba49
:10107e00e0faa3e0fb90e01eeaf0a3ebf01206ce3e
:10108e0090e68ae4f090e68bf002145890e6f57440
:10109e00fff000000090e6487482f090e604748041
:1010ae00f000000090e6047402f000000090e604e8
:1010be00e4f0000000c209c20a120a9ed28190e634
:1010ce008ae4f090e68bf002145820090dc208d283
:1010de000a90eede120ad702145890dead120ad72d
:1010ee00021458200910c208120abed20a90eede6f
:1010fe00120ad702145890dead120ad7021458d233
:10110e000b90eede120ad7021458c20b90eede12ce
:10111e000ad70214583009030211e2c20890e6ba47
:10112e00e0faa3e0fba3e0fca3e0fd90e00feaf001
:10113e00a3ebf0a3ecf0a3edf090e60174caf0126d
:10114e000abe90e00fe0faa3e0fba3e0fca3e0fdf3
:10115e00c3ea9496eb9400ec9400ed940050089042
:10116e00e60174caf0800690e601748af090e032cf
:10117e00e0faa3e0fba3e0fca3e0fd90e00fe0fead
:10118e00a3e0ffa3e0f8a3e0f9c3ea9eeb9fec987f
:10119e00ed994004d20a803390e032e0faa3e0fbee
:1011ae00a3e0fca3e0fd90e00fe0fea3e0ffa3e0d0
:1011be00f8a3e0f990e00feec39af0ef9ba3f0e8ee
:1011ce009ca3f0e99da3f0d206d20990eede120a9e
:1011de00d702145890dead120ad702145830090304
:1011ee000212d190e60174caf0c20890e6bae0fa93
:1011fe00a3e0fba3e0fca3e0fd90e00feaf0a3eb7d
:10120e00f0a3ecf0a3edf090e032e0faa3e0fba344
:10121e00e0fca3e0fd90e00fe0fea3e0ffa3e0f80a
:10122e00a3e0f9c3ee9aef9be89ce99d5003120ae6
:10123e00be90e032e0faa3e0fba3e0fca3e0fd9059
:10124e00e00fe0fea3e0ffa3e0f8a3e0f9c3ea9eff
:10125e00eb9fec98ed994004d20a803390e032e097
:10126e00faa3e0fba3e0fca3e0fd90e00fe0fea3f9
:10127e00e0ffa3e0f8a3e0f990e00feec39af0efe1
:10128e009ba3f0e89ca3f0e99da3f0d206d20990af
:10129e00e00fe0faa3e0fba3e0fca3e0fdc3ea94b9
:1012ae0096eb9400ec9400ed9400500890e60174d7
:1012be00caf0800690e601748af090eede120ad72c
:1012ce0002145890dead120ad702145890e6bce014
:1012de00fa5302f090e02eeaf0a3e4f0a3f0a3f0ac
:1012ee00746f5580fa90e6bce0fb74905b4af58013
:1012fe0090eede120ad7021458740f5580fa90e061
:10130e002ee0fba3e0fca3e0fda3e0fee4fff8f972
:10131e00ea4203ef4204e84205e942068b8090ee72
:10132e00de120ad7021458746f5580fa90e02ee040
:10133e00fba3e0fca3e0fda3e0fe5303907c007d45
:10134e00007e00e4fff8f9ea4203ef4204e84205aa
:10135e00e942068b8090eede120ad7021458749f73
:10136e005580fa90e02ee0fba3e0fca3e0fda3e0a5
:10137e00fe5303607c007d007e00e4fff8f9ea4234
:10138e0003ef4204e84205e942068b8090eede123e
:10139e000ad702145890e68ae4f090e68bf090e6b5
:1013ae00a0e0fa20e1f890e740e0faa3e0fba3e02a
:1013be00fca3e0fd90e003eaf0a3ebf0a3ecf0a3b6
:1013ce00edf090e744e0faa3e0fba3e0fca3e0fd20
:1013de0090e007eaf0a3ebf0a3ecf0a3edf090e0c1
:1013ee0003e0faa3e0fba3e0fca3e0fdbaff0bbb16
:1013fe00ff08bcff05bdff028012d204746f55803a
:10140e00fa90e6bce0fb74905b4af58090e007e052
:10141e00faa3e0fba3e0fca3e0fdbaff0bbbff08c1
:10142e00bcff05bdff028012d205749f5580fa9055
:10143e00e6bce0fb74605b4af58090e68ae4f090cf
:10144e00e68bf08005740124ff22e424ff22758cc4
:10145e00d1758a4a74f055894401f589438e08d2b4
:10146e008cd2a9d2af22c0e0c082c083c002c0031a
:10147e00c004c005c006c007c000c001c0d075d0f2
:10148e0000758cd1758a4a90e032e02401f0a3e019
:10149e003400f0a3e03400f0a3e03400f030041e7a
:1014ae0090e003e0faa3e0fba3e0fca3e0fd90e0f4
:1014be0026eaf0a3ebf0a3ecf0a3edf0c2043005a6
:1014ce001e90e007e0faa3e0fba3e0fca3e0fd9092
:1014de00e02aeaf0a3ebf0a3ecf0a3edf0c2059046
:1014ee00e026e0faa3e0fba3e0fca3e0fd90e026fb
:1014fe00e024fffea3e034ffffa3e034fff8a3e0f7
:10150e0034fff990e026eef0a3eff0a3e8f0a3e9a4
:10151e00f0ea4b4c4d702e746f5580fa90e02ee031
:10152e00fba3e0fca3e0fda3e0fe5303907c007d53
:10153e00007e00e4fff8f9ea4203ef4204e84205b8
:10154e00e942068b8090e02ae0faa3e0fba3e0fce0
:10155e00a3e0fd90e02ae024fffea3e034ffffa30a
:10156e00e034fff8a3e034fff990e02aeef0a3efa9
:10157e00f0a3e8f0a3e9f0ea4b4c4d702e749f55a2
:10158e0080fa90e02ee0fba3e0fca3e0fda3e0feda
:10159e005303607c007d007e00e4fff8f9ea42030d
:1015ae00ef4204e84205e942068b80100602801cd9
:1015be0090e00fe0faa3e0fba3e0fca3e0fd90e0d7
:1015ce000beaf0a3ebf0a3ecf0a3edf030080b90d8
:1015de00e00be4f0a3f0a3f0a3f030093c90e00b95
:1015ee00e0faa3e0fba3e0fca3e0fdea4b4c4d7058
:1015fe0004d20a802490e00be024fffaa3e034ff2b
:10160e00fba3e034fffca3e034fffd90e00beaf017
:10161e00a3ebf0a3ecf0a3edf0d0d0d001d000d02e
:10162e0007d006d005d004d003d002d083d082d00c
:02163e00e03298
:01173a000aa4
:10164000300d0a90e680e0fa440af0800890e680c7
:10165000e0fa4408f09005dc12167390e65d74ff22
:10166000f090e65f74fff05391ef90e680e0fa545b
:03167000f7f0226e
:0602f500e478fff6d8fddd
:1002d300791ce94400601b7a0190171f782675a0ea
:1002e300e0e493f2a308b8000205a0d9f4daf275aa
:0202f300a0ff6a
:1002fb007800e84400600a790075a000e4f309d89f
:10030b00fc7826e84400600c790190e000e4f0a34f
:04031b00d8fcd9fa37
:10167300aa82ab8390e600e0fc530418bc0011740b
:10168300012afce43bfd8c02c313ca13cafb80127c
:1016930090e600e0fc530418bc1007ebca25e0ca2f
:1016a30033fb8a048b051abaff011bec4d600dc096
:0d16b30002c0031216c0d003d00280e62250
:0d02c60075817f1216d1e582600302032ec0
:1016c0007400f58690fda57c05a3e582458370f93d
:0516d0002275820022da
:00000001FF
