:0A0DF50000010202030304040505D7
:1005C500E4F52CF52BF52AF529C203C200C202C2B7
:1005D50001120E177E087F6B8E0A8F0B7512087538
:1005E500137D7508087509877510087511A77514A9
:1005F500087515C7EE54E07003020709752D0075DF
:100605002E808E2F8F30C374F19FFF74089ECF24E8
:1006150002CF3400FEE48F288E27F526F525F52434
:10062500F523F522F521AF28AE27AD26AC25AB2461
:10063500AA23A922A821C3120A075026E52E25249C
:10064500F582E52D3523F58374CDF0E5242401F5F8
:1006550024E43523F523E43522F522E43521F5217B
:1006650080C4E4F524F523F522F521AF28AE27ADA6
:1006750026AC25AB24AA23A922A821C3120A075018
:1006850031AE23AF24E5302FF582E52F3EF583E02B
:10069500FDE52E2FF582E52D3EF583EDF0EF2401E6
:1006A500F524E43EF523E43522F522E43521F52150
:1006B50080B9852D0A852E0B746B2480FF74083450
:1006C500FFFEC3E5139FF513E5129EF512C3E50D75
:1006D5009FF50DE50C9EF50CC3E50F9FF50FE50E97
:1006E5009EF50EC3E5099FF509E5089EF508C3E5E6
:1006F500119FF511E5109EF510C3E5159FF515E55C
:10070500149EF514D2E843D82090E668E04409F039
:1007150090E65CE0443DF0D2AF90E680E054F7F01F
:10072500538EF8C20330010512032CC20130032990
:10073500120E205024C203120D7420001690E6827A
:10074500E030E704E020E1EF90E682E030E604E007
:0E07550020E0E4120CAB120E221208FF80C747
:10032C0090E6B9E070030204071470030204B024D1
:10033C00FE700302054524FB7003020401147003D4
:10034C000203FB1470030203EF1470030203F52481
:10035C000560030205B1120E2440030205BD90E6B0
:10036C00BBE024FE602C14604724FD601614603141
:10037C0024067065E50A90E6B3F0E50B90E6B4F060
:10038C000205BDE51290E6B3F0E51390E6B4F00279
:10039C0005BDE50C90E6B3F0E50D90E6B4F0020572
:1003AC00BDE50E90E6B3F0E50F90E6B4F00205BDA6
:1003BC0090E6BAE0FF120CD7AA06A9077B01EA491E
:1003CC00600DEE90E6B3F0EF90E6B4F00205BD9050
:1003DC00E6A0E04401F00205BD90E6A0E04401F087
:1003EC000205BD120DE30205BD120E070205BD127A
:1003FC000DFF0205BD120DD10205BD120E264003E4
:10040C000205BD90E6B8E0247F602B14603C24020A
:10041C0060030204A6A200E433FF25E0FFA202E47D
:10042C00334F90E740F0E4A3F090E68AF090E68B2F
:10043C007402F00205BDE490E740F0A3F090E68A68
:10044C00F090E68B7402F00205BD90E6BCE0547EA1
:10045C00FF7E00E0D3948040067C007D0180047C0C
:10046C00007D00EC4EFEED4F24F5F582740D3EF54B
:10047C0083E493FF3395E0FEEF24A1FFEE34E68F87
:10048C0082F583E0540190E740F0E4A3F090E68A13
:10049C00F090E68B7402F00205BD90E6A0E04401FA
:1004AC00F00205BD120E2840030205BD90E6B8E02F
:1004BC0024FE601D240260030205BD90E6BAE0B480
:1004CC000105C2000205BD90E6A0E04401F0020562
:1004DC00BD90E6BAE0705990E6BCE0547EFF7E0019
:1004EC00E0D3948040067C007D0180047C007D007C
:1004FC00EC4EFEED4F24F5F582740D3EF583E4933E
:10050C00FF3395E0FEEF24A1FFEE34E68F82F583F6
:10051C00E054FEF090E6BCE05480FF131313541F1C
:10052C00FFE0540F2F90E683F0E04420F00205BD6D
:10053C0090E6A0E04401F08078120E2A507390E609
:10054C00B8E024FE60202402706790E6BAE0B401A3
:10055C0004D200805C90E6BAE06402605490E6A09D
:10056C00E04401F0804B90E6BCE0547EFF7E00E05E
:10057C00D3948040067C007D0180047C007D00ECDF
:10058C004EFEED4F24F5F582740D3EF583E493FF9A
:10059C003395E0FEEF24A1FFEE34E68F82F583E085
:1005AC004401F0800C120080500790E6A0E044015A
:0805BC00F090E6A0E04480F09D
:0105C4002214
:03003300020E1C9E
:040E1C0053D8EF3286
:10086B0012010002000000404705021000000102C7
:10087B0000010A06000200000040010009022000EE
:10088B00010100A0320904000002FF00000007056F
:10089B000202000200070586020002000902200086
:1008AB00010100A0320904000002FF00000007054F
:1008BB000102400000070581024000000403090407
:1008CB001003430079007000720065007300730021
:1008DB00160345005A002D0055005300420020001E
:0808EB00460058003200000035
:050E1700D200020E0FE5
:0108FF0022D6
:020E2000D322DB
:020E2200D322D9
:020E2400D322D7
:080DFF0090E6BAE0F51ED322D4
:100DD10090E740E51EF0E490E68AF090E68B04F09F
:020DE100D3221B
:080E070090E6BAE0F51CD322CD
:100DE30090E740E51CF0E490E68AF090E68B04F08F
:020DF300D32209
:020E2600D322D5
:020E2800D322D3
:020E2A00D322D1
:1000800090E678E05410FFC4540F4450F51D13E47B
:1000900033F51F90E6B9E0245EB40B004003020381
:1000A0002A9000A8F82828730201A20201A20201E6
:1000B0001D0200C90200E302010302014C02019C7F
:1000C00002012602013902017290E740E51FF0E4C7
:1000D00090E68AF090E68B04F090E6A0E04480F091
:1000E00002032A90E600E0FFC4540F90E740F0E4DA
:1000F00090E68AF090E68B04F090E6A0E04480F071
:1001000002032A90E740740FF0E490E68AF090E64C
:100110008B04F090E6A0E04480F002032A90E6BA57
:10012000E0F51D02032A90E67AE054FEF0E490E642
:100130008AF090E68BF002032A90E67AE04401F020
:10014000E490E68AF090E68BF002032A90E7407490
:1001500007F0E490E68AF090E68B04F090E6A0E0E9
:100160004480F07FE87E03120B37D204120C4E025B
:10017000032A90E6B5E054FEF090E6BFE090E68AF0
:10018000F090E6BEE090E68BF090E6BBE090E6B340
:10019000F090E6BAE090E6B4F002032A751F01433E
:1001A0001D0190E6BAE0753100F532A3E0FEE4EE01
:1001B000423190E6BEE0753300F534A3E0FEE4EE94
:1001C000423390E6B8E064C06003020292E5344531
:1001D00033700302032A90E6A0E020E1F9C3E5347E
:1001E0009440E533940050088533358534368006D5
:1001F00075350075364090E6B9E0B4A335E4F537BF
:10020000F538C3E5389536E53795355060E5322544
:1002100038F582E5313537F583E0FF74402538F550
:1002200082E434E7F583EFF00538E53870D405371C
:1002300080D0E4F537F538C3E5389536E5379535A0
:10024000501874402538F582E434E7F58374CDF016
:100250000538E53870E1053780DDAD367AE779405D
:100260007EE77F40AB07AF32AE31120A18E490E66A
:100270008AF090E68BE536F02532F532E5353531FA
:10028000F531C3E5349536F534E5339535F533026C
:1002900001CD90E6B8E06440600302032AE53445EE
:1002A00033700302032AE490E68AF090E68BF09024
:1002B000E6A0E020E1F990E68BE0753500F5369098
:1002C000E6B9E0B4A335E4F537F538C3E53895363B
:1002D000E5379535503874402538F582E434E7F534
:1002E00083E0FFE5322538F582E5313537F583EFD8
:1002F000F00538E53870D4053780D0AD367AE77927
:10030000407EE77F40AB07AF32AE31120BB3E5362C
:100310002532F532E5353531F531C3E5349536F51D
:0B03200034E5339535F53302029DC330
:01032B0022AF
:100C7D00C0E0C083C082C085C084C08675860090E8
:100C8D00E6B5E04401F0D2015391EF90E65D7401B9
:0E0C9D00F0D086D084D085D082D083D0E032D3
:100D2A00C0E0C083C082C085C084C0867586005377
:100D3A0091EF90E65D7404F0D086D084D085D0829D
:050D4A00D083D0E0326F
:100D4F00C0E0C083C082C085C084C0867586005352
:100D5F0091EF90E65D7402F0D086D084D085D0827A
:050D6F00D083D0E0324A
:100AAB00C0E0C083C082C085C084C08675860090BC
:100ABB00E680E030E70E85080C85090D85100E8564
:100ACB00110F800C85100C85110D85080E85090FF3
:100ADB005391EF90E65D7410F0D086D084D085D022
:060AEB0082D083D0E0324E
:100D0300C0E0C083C082C085C084C086758600D21F
:100D1300035391EF90E65D7408F0D086D084D085BC
:070D2300D082D083D0E03242
:100AF100C0E0C083C082C085C084C0867586009076
:100B0100E680E030E70E85080C85090D85100E851D
:100B1100110F800C85100C85110D85080E85090FAC
:100B21005391EF90E65D7420F0D086D084D085D0CB
:060B310082D083D0E03207
:010E2C003293
:010E2D003292
:010E2E003291
:010E2F003290
:010E3000328F
:010E3100328E
:010E3200328D
:010E3300328C
:010E3400328B
:010E3500328A
:010E36003289
:010E37003288
:010E38003287
:010E39003286
:010E3A003285
:010E3B003284
:010E3C003283
:010E3D003282
:010E3E003281
:010E3F003280
:010E4000327F
:010E4100327E
:010E4200327D
:010E4300327C
:010E4400327B
:010E4500327A
:010E46003279
:010E47003278
:010E48003277
:010E49003276
:010E4A003275
:010E4B003274
:010E4C003273
:010E4D003272
:010E4E003271
:010E4F003270
:060A6200AB07AA06AC057B
:100A6800E4FDE51F6010EA7E000DEE2400F582E447
:100A7800340EF583EAF0EBAE050D74002EF582E432
:100A8800340EF583EBF0AF050D74002FF582E434D6
:100A98000EF583ECF07A0E7B00AF1D120DB5AF1D7D
:030AA800020B7DC1
:0A0BB3008E398F3A8D3B8A3C8B3D52
:100BBD00E4F53EE53EC3953B5020053AE53AAE39A6
:100BCD007002053914FFE53D253EF582E4353CF50F
:0A0BDD0083E0FD120A62053E80D994
:010BE70022EB
:0A0A18008E398F3A8D3B8A3C8B3DEE
:100A2200E4FDF53EE51F6012E539FF7E000DEE2480
:100A320000F582E4340EF583EFF0E53AAE050D746D
:100A4200002EF582E4340EF583E53AF07A0E7B004F
:100A5200AF1D120DB5AB3DAA3CAD3BAF1D020D99CA
:03004300020900AF
:030053000209009F
:10090000020C7D00020D4F00020D2A00020D0300B3
:10091000020AAB00020AF100020E2C00020E2D00AA
:10092000020E2E00020E2F00020E3000020E3100C9
:10093000020E3200020E3300020E3400020E3500A9
:10094000020E3600020E2D00020E3700020E380095
:10095000020E3900020E3A00020E3B00020E3C006D
:10096000020E3D00020E2D00020E2D00020E2D0083
:10097000020E3E00020E3F00020E4000020E410039
:10098000020E4200020E4300020E4400020E450019
:10099000020E4600020E4700020E4800020E4900F9
:1009A000020E4A00020E4B00020E4C00020E4D00D9
:0809B000020E4E00020E4F0082
:100CAB0090E682E030E004E020E60B90E682E03054
:100CBB00E119E030E71590E680E04401F07F147E07
:0C0CCB0000120B3790E680E054FEF0228F
:100D740090E682E044C0F090E681F04387010000F1
:040D84000000002249
:100C4E0030040990E680E0440AF0800790E680E0E8
:100C5E004408F07FDC7E05120B3790E65D74FFF0E2
:0F0C6E0090E65FF05391EF90E680E054F7F022AC
:100B37008E398F3A90E600E054187012E53A240196
:100B4700FFE43539C313F539EF13F53A801590E60D
:100B570000E05418FFBF100BE53A25E0F53AE539F8
:100B670033F539E53A153AAE39700215394E600555
:060B7700120D8880EE2241
:080E0F00E4F51BD2E9D2AF2289
:100B7D0090E678E020E6F9C2E990E678E04480F06E
:100B8D00EF25E090E679F090E678E030E0F990E638
:100B9D0078E04440F090E678E020E6F990E678E0E1
:060BAD0030E1D6D2E9227E
:100C1C00A90790E678E020E6F9E51B702390E678CA
:100C2C00E04480F0E925E090E679F08D16AF03A959
:100C3C00077517018A188919E4F51A751B01D32257
:020C4C00C322C1
:100BE800A90790E678E020E6F9E51B702590E678FD
:100BF800E04480F0E925E0440190E679F08D16AFF5
:100C080003A9077517018A188919E4F51A751B03D2
:040C1800D322C322FE
:03004B0002076346
:10076300C0E0C083C082C085C084C086758600C0D7
:10077300D075D000C000C001C002C003C006C007CE
:1007830090E678E030E206751B0602084D90E678A5
:10079300E020E10CE51B64026006751B0702084DAF
:1007A300E51B24FE605F14603624FE700302083EDE
:1007B30024FC700302084A2408600302084DAB17A7
:1007C300AA18A919AF1A051A8F827583001209B8DE
:1007D30090E679F0E51A65167070751B05806B90CD
:1007E300E679E0AB17AA18A919AE1A8E82758300B1
:1007F3001209E5751B02E5166401704E90E678E078
:100803004420F08045E51624FEB51A0790E678E00B
:100813004420F0E51614B51A0A90E678E04440F057
:10082300751B0090E679E0AB17AA18A919AE1A8ECA
:10083300827583001209E5051A800F90E678E0447B
:1008430040F0751B008003751B005391DFD007D068
:1008530006D003D002D001D000D0D0D086D084D02F
:0808630085D082D083D0E03281
:020CD700A9076B
:100CD900AE14AF158F828E83A3E064037017AD0144
:100CE90019ED7001228F828E83E07C002FFDEC3E8E
:090CF900FEAF0580DF7E007F00E4
:010D020022CE
:100D9900120BE8E51B24FA600E146006240770F3B1
:0C0DA900D322E4F51BD322E4F51BD32277
:100DB500120C1CE51B24FA600E146006240770F360
:0C0DC500D322E4F51BD322E4F51BD3225B
:100D88007400F58690FDA57C05A3E582458370F97E
:010D98002238
:030000000208F300
:0C08F300787FE4F6D8FD75813E0205C553
:1009B800BB010CE58229F582E5833AF583E02250F4
:1009C80006E92582F8E622BBFE06E92582F8E2223E
:0D09D800E58229F582E5833AF583E4932258
:1009E500F8BB010DE58229F582E5833AF583E8F048
:1009F500225006E92582C8F622BBFE05E92582C8F4
:020A0500F222DB
:100A0700EB9FF5F0EA9E42F0E99D42F0E89C45F045
:010A170022BC
:00000001FF
